:02000000EC2AE8
:1000060083120313C203C2034208003C03181028DC
:10001600C2030000000000000728000000000000E6
:06002600000000000800CC
:10002C0083120313F801F9011030FC00710DF80D67
:10003C00F90D7408F8027508031C750FF902031802
:10004C002E287408F80775080318750FF9070310A4
:0A005C00F00DF10DFC0B1C2808004C
:0E0066008312031332088A003108820008005A
:10007400831203132230FC00F801F901FA01FB0199
:10008400FC03031970280310FB0CFA0CF90CF80C90
:10009400F30CF20CF10CF00C031C4228FC030319C2
:1000A40062287408F80775080318750FF9077608AD
:1000B4000318760FFA0777080318770FFB0746280B
:1000C4007408F80775080318750FF90776080318FC
:0E00D400760FFA0777080318770FFB0708006E
:1000E200403083120313F0001F30F100F201F301DC
:0200F200080004
:1000F40083120313FB01FA01F901F801A001730D46
:10010400F80D7408F8027508031C750FF9027608D7
:10011400031C760FFA027708031C770FFB02000119
:10012400031C0130A002F30D0730FC00730DF80D21
:10013400F90DFA0DFB0DA00D7408731CB328F80219
:100144007508031C750FF9027608031C760FFA0272
:100154007708031C770FFB020001031C0130A00287
:10016400C428F80775080318750FF90776080318EB
:10017400760FFA0777080318770FFB0700010318B7
:100184000130A007F30DFC0B9828720DF80DF90D42
:10019400FA0DFB0DA00D7408731CE228F802750813
:1001A400031C750FF9027608031C760FFA02770810
:1001B400031C770FFB020001031C0130A002F3288B
:1001C400F80775080318750FF90776080318760FF2
:1001D400FA0777080318770FFB07000103180130AB
:1001E400A007F20D0730FC00720DF80DF90DFA0DA1
:1001F400FB0DA00D7408721C1129F8027508031C6C
:10020400750FF9027608031C760FFA027708031CAF
:10021400770FFB020001031C0130A0022229F8071A
:1002240075080318750FF90776080318760FFA078F
:1002340077080318770FFB07000103180130A007A4
:10024400F20DFC0BF628710DF80DF90DFA0DFB0DEE
:10025400A00D7408721C4029F8027508031C750F60
:10026400F9027608031C760FFA027708031C770F4D
:10027400FB020001031C0130A0025129F807750894
:100284000318750FF90776080318760FFA0777082D
:100294000318770FFB07000103180130A007F10DC5
:1002A4000730FC00710DF80DF90DFA0DFB0DA00DD2
:1002B4007408711C6F29F8027508031C750FF90284
:1002C4007608031C760FFA027708031C770FFB02EB
:1002D4000001031C0130A0028029F80775080318E7
:1002E400750FF90776080318760FFA0777080318CD
:1002F400770FFB07000103180130A007F10DFC0B79
:100304005429700DF80DF90DFA0DFB0DA00D7408AC
:10031400711C9E29F8027508031C750FF9027608F2
:10032400031C760FFA027708031C770FFB02000107
:10033400031C0130A002AF29F80775080318750FD4
:10034400F90776080318760FFA0777080318770F6A
:10035400FB07000103180130A007F00D0730FC0073
:10036400700DF80DF90DFA0DFB0DA00D7408701C3D
:10037400CD29F8027508031C750FF9027608031CD1
:10038400760FFA027708031C770FFB020001031CA7
:100394000130A002DE29F80775080318750FF90764
:1003A40076080318760FFA0777080318770FFB0708
:1003B400000103180130A007F00DFC0BB2297018DE
:1003C400F1297408F80775080318750FF9077608FA
:1003D4000318760FFA0777080318770FFB0708004E
:1003E400831203133608B3003708F1000130F0001C
:1003F40071080319012AF00D7010FF3EFB297008E3
:10040400B400F0097008B500803036078400700825
:0A04140080058413700880050800BD
:10041E007120E830F4000330F500F601F7013A20C0
:10042E007008BE007108BF007208C0007308C100DA
:10043E003608F4003708F500F601F7017A20700847
:10044E00BE007108BF007208C0007308C1007008BA
:10045E00F5007108F6007208F7007308F800F80C42
:10046E00F70CF60CF50CF813F80CF70CF60CF50C63
:10047E00F8137508F0007608F1007708F200780896
:10048E00F300F30CF20CF10CF00CF3137008BA003D
:10049E007108BB0071203808F4003908F500F60128
:1004AE00F7013A203A08F9003B08FA00FB01FC017B
:1004BE000330F8007908F4007A08F5007B08F6009E
:1004CE007C08F70078080319732AF40DF50DF60D64
:1004DE00F70D7410FF3E6A2A7A207008BE0071086C
:1004EE00BF007208C0007308C1000A30F40000306B
:1004FE00F5003A08F0003B08F10016207008BA002B
:10050E007108BB0000307102031D8F2A0330700288
:10051E000318922ADF2A330884004108003C031D89
:10052E00A22A4008003C031DA22A3F08003C031DDE
:10053E00A22A3E08003C0318DD2A340880043B083A
:10054E000319B92ABC01BD0100303D02031DB12AB9
:10055E003B083C020318B92AC2010320BC0A031946
:10056E00BD0AAB2A3A08C2000320350880053B08B5
:10057E000319D12ABC01BD0100303D02031DC92A59
:10058E003B083C020318D12AC2010320BC0A0319FE
:10059E00BD0AC32A3A08C20003200130BE02031C62
:1005AE00BF02031CC002031CC102942A3508800539
:0205BE00080033
:1005C00033208A110A128000840AB10A0319B20A80
:0805D000F003031DE02A0800FE
:1005D800093083120313A100A2013F30A3000630A3
:1005E800A4005B30A5004F30A6006630A7006D3030
:1005F800A8007C30A9000730AA007F30AB006F301C
:10060800AC00A030AD002030AE001030AF00D030CC
:10061800B00003178713881309300313B60002309C
:10062800B700F22183160317890188010313870194
:100638008312870180302206F00080307002031D8B
:10064800272B00302102031C682B2108233E84003D
:10065800000887000130A102031CA2030B30FB0035
:100668002630FC005D30FD00FD0B382BFC0B382BD1
:10067800FB0B382B0000000080302206F000803091
:100688007002031D492B033021020318582B21083F
:100698002D3E84000008B600B7010030B700E830EE
:1006A800B8000330B9000F2280302206F0008030F5
:1006B8007002031D612B003021020318672B0930DB
:0A06C800A1000030A2001E2B682BD9
:04400E00F22F000786
:00000001FF
