:020000001628C0
:0E0006008312031361088A006008820008005C
:1000140003208A110A128000840AE00A0319E10A03
:08002400F003031D0A28080087
:10002C0008218316031789018801031387018801AE
:10003C008601FF308312860006184928E201E3018D
:10004C0080306306F00080307002031D2F280830CA
:10005C006202031849286208203E840000088800C8
:10006C006208283E8400000987000330FC009730AA
:10007C00FD00FD0B3F28FC0B3F2800000000E20AAE
:10008C000319E30A262886187028E201E301803060
:10009C006306F00080307002031D5628083062029F
:1000AC00031870286208203E84000008880062084B
:1000BC00583E8400000987000330FC009730FD0097
:1000CC00FD0B6628FC0B662800000000E20A0319F1
:1000DC00E30A4D280619C128E201E30180306306CA
:1000EC00F00080307002031D7D282030620203185E
:1000FC00C128E401E50180306506F0008030700213
:10010C00031D8A28323064020318BD28E601E7017A
:10011C0080306706F00080307002031D972808308D
:10012C0066020318B9286608203E8400000888007F
:10013C0066086207F00063080318013E6707F100C8
:10014C007008303E8400000987000330FC009730B3
:10015C00FD00FD0BAF28FC0BAF2800000000E60AE9
:10016C000319E70A8E28E40A0319E50A8128E20A32
:0A017C000319E30A74282228C228A0
:1002100020308400403083120313F000C830E00027
:080220000030E1000A20080093
:1001900001340234043408341034203440348034C0
:1001A000183424344234423442347E3442344234AB
:1001B00000347E347E34183418347E347E34003477
:1001C00000347E347E34663466347E347E340034CB
:1001D00000347E347E346034603460346034003403
:1001E00000347E347E34163416347E347E3400344B
:1001F000003400340034003400340034003400345F
:10020000CE34913421344234423421349134CE34CA
:04400E00F22F000786
:00000001FF
