:020000040000FA
:020000004D2889
:040002000034003492
:0800080036288207EF34EF34C3
:100010002C34033403342C34EF34EF34EF34EF3426
:100020002C34033403342C34DF34BF34FF34FF3436
:10003000FF34FF34FF34FF34FF34FF34003497348F
:100040009434F4349434F7340034003400342734D6
:10005000213421345134893400340034FF34FF34E6
:10006000FF34FF34FF34FF34FF34FF340B183B28D8
:100070000B194228090087018312031701308500FC
:10008000402809000B110919492809152008810089
:1000900009000911200881000900831603130130AB
:1000A000810088308B00870188018901831603173E
:1000B0008801890183120313860887018801890159
:1000C000831603130730960083120130A100083015
:1000D000A300FF3006060319870103196728061CD1
:1000E000AC28861CD928061DF8286728F930A500F9
:1000F0000000A50B782808000730A5002F30A600C7
:100100000330A700A50B8528A60B8728A70B8228FC
:1001100089288A288B28080011308100A000080057
:100120002C308100A000080042308100A0000800AF
:100130004D308100A000080060308100A000080060
:1001400072308100A000080082308100A000080009
:1001500088308100A0000800A201A40121088700C6
:100160002208052088007620A20A0310A10D0308AA
:100170000139A104A30BAE280830A300A202A40BEE
:10018000AE28A4010830A200A3002108870022089D
:10019000052088007620A20A0310A10D030801396A
:1001A000A104A30BC5280830A300A202A40BC528F4
:1001B00067284030A4002830A200210887002208C8
:1001C000052088007620A20A0310A10D030801393A
:1001D000A104A30BDD280830A300A202A40BDD2894
:1001E0004030A400A2030F302206031DDD2867283B
:1001F0008B168C207C2090207C2094207C209820C2
:100200007C209C207C20A0207C20A4207C20A82076
:060210007C208B12672820
:02400E00F43F7D
:00000001FF
